:100000000C94EA000C9407010C9407010C9407016E
:100010000C9407010C9407010C9407010C94070140
:100020000C9407010C9407010C940D010C9407012A
:100030000C9407010C9407010C9407010C94070120
:100040000C9407010C9407010C9407010C94070110
:100050000C940701000000C0A400005000354C8043
:1000600095DC805C3A00CDA980004000480000008B
:100070002200586E00104C0000020010080000041E
:1000800000400200E59380240000B18980B588809B
:10009000341800959880959980A49000B59980B502
:1000A000988000440000420041028011088009202D
:1000B00080B08400259500B49900D5998081918005
:1000C000A5C4809199809099009591803419008100
:1000D000C4802501804819000111806431002C3151
:1000E00000A59180B09900AD9180B8990095A0804D
:1000F00080C4002511804013002C130048220040CA
:100100002400C1828081440008200000C4800030A7
:1001100000010080400000B49900D5998081918051
:10012000A5C480919980909900959180341900819F
:10013000C4802501804819000111806431002C31F0
:1001400000A59180B09900AD9180B8990095A080EC
:1001500080C4002511804013002C13004822004069
:100160002400C18280814C0000110010C480303016
:1001700000FFFF00004000400000100000080000E9
:100180000004000002000008000020000000000041
:10019000000000000000000000000000000000005F
:1001A000000000000000000000000000000000004F
:1001B000000000000000000000000000000000003F
:1001C000000000000000000000000000000000002F
:1001D0000000000011241FBECFE5D8E0DEBFCDBF78
:1001E00010E0A0E6B0E0E2E8F4E002C005900D9275
:1001F000A236B107D9F720E0A2E6B0E001C01D9217
:10020000A837B207E1F70E9434020C943F020C9425
:1002100000005D9BFECF8CB908951F920F920FB620
:100220000F9211242F933F934F935F936F937F937C
:100230008F939F93EF93FF9380916400909165005B
:100240008034914068F08091670090916800019639
:10025000909368008093670010926500109264008C
:10026000409160002091630030E081E090E0BC01AB
:1002700002C0660F771F4A95E2F726173707A4F5E5
:100280000090620002C0880F991F0A94E2F788BBB1
:100290008091620090E0FC01EE0FFF1F8E0F9F1F08
:1002A000FC01E759FF4F80818BBB8091620090E099
:1002B000FC01EE0FFF1F8E0F9F1FFC01E759FF4F40
:1002C000818185BB979822B38091620090E0FC0108
:1002D000EE0FFF1F8E0F9F1FFC01E759FF4F82811A
:1002E0008078822B82BB01C018BA809163008F5F37
:1002F000803418F4809363000CC0109263008091E6
:1003000062008F5F853018F48093620002C0109203
:100310006200FF91EF919F918F917F916F915F911B
:100320004F913F912F910F900FBE0F901F901895F6
:10033000CF93DF93EB01D901803228F41C92FA01AC
:100340001082188232C0803AC0F4805290E0FC01E2
:10035000EE0FFF1F8E0F9F1FFC01EC5AFF4FE49121
:10036000E883FC01EB5AFF4FE491EA01E883FC01CA
:10037000EA5AFF4FE491EC9318C0805A90E0FC01D8
:10038000EE0FFF1F8E0F9F1FFC01EC5AFF4FE491F1
:10039000E260E883FC01EB5AFF4FE491EA01E88355
:1003A000FC01EA5AFF4F84918C93DF91CF9108951D
:1003B0001BBA8FEF8ABB18BA87BB15BA84BB82BB46
:1003C00082E881BB08958AE083BF12BE8DE38CBFB3
:1003D00082E089BF08951BB888E18AB986E080BDB4
:1003E00010BC87E689B908955F9B3DC08CB19FEF33
:1003F000980F963018F49093600033C08A3011F053
:100400008D3019F4109266002CC0803260F190910A
:100410006600953030F5209166004091660060914D
:10042000660030E0F901EE0FFF1F2E0F3F1F255928
:100430003F4F50E0FA01EE0FFF1F4E0F5F1F46596E
:100440005F4F70E0FB01EE0FFF1F6E0F7F1F6759BC
:100450007F4F0E949801809166008F5F80936600B5
:1004600008950C94090108950E94D8010E94E301A7
:100470000E94EB017894A8950E94F401FCCFF894B7
:02048000FFCFAC
:02048200050073
:00000001FF
